:100000000C946C000C9489000C9489000C94890069
:100010000C9489000C9489000C9489000C9489003C
:100020000C9489000C9489000C9489000C9489002C
:100030000C9489000C9489000C9489000C9489001C
:100040000C9489000C9489000C9489000C9489000C
:100050000C9489000C9489000C9489000C948900FC
:100060000C9489000C9489000C9489000C940C0267
:100070000C9489000C9489000C94890008000000FD
:10008000BE922449123EABAAAA2ABECDCCCC4C3E8D
:1000900000000080BEABAAAAAA3E00000000BF007C
:1000A0000000803F0000000000084178D3BB438778
:1000B000D1133D190E3CC3BD4282AD2B3E68EC828C
:1000C00076BED98FE1A93E4C80EFFFBE01C4FF7F11
:1000D0003F00000000009B0211241FBECFEFCDBFE8
:1000E000DFE3DEBF28E3A0E0B8E301C01D92A63144
:1000F000B207E1F710E0CCE6D0E004C02197FE01A2
:100100000E94AC02CB36D107C9F70E94A3020C941F
:100110003C050C9400000895089508950F931F93D3
:10012000CF93DF93CDB7DEB74DB75EB7298532E009
:10013000320F8DB79EB7831B91098DBF9EBFADB7A0
:10014000BEB711968F81EDB7FEB781838885F0E148
:100150008F9FC0011124822B11968C931197BE01A1
:10016000665F7F4F0DB71EB70D5F1F4F80E02817EA
:1001700041F0FB019191BF01F80191938F018F5FD5
:10018000F6CF80E480930408809106088F778093EF
:1001900006089A2FFD018E2F891B831740F480914A
:1001A000040885FFFCCF819180930208F4CF8091F1
:1001B000040886FFFCCF80910608806880930608BB
:1001C0004DBF5EBFDF91CF911F910F910895CF93E7
:1001D000DF93CDB7DEB76397CDBFDEBF9C01E0E014
:1001E000F4E094819F7794834FEF81EE94E0415047
:1001F00080409040E1F700C00000948190689483B3
:10020000EFEFF1EE44E0E150F0404040E1F700C094
:100210000000F90183899FEF998397E09A8392E028
:100220009B838C8386E08D838DB79EB743978DBF6C
:100230009EBFADB7BEB7119683E1FE013196019026
:100240000D928A95E1F7C9010E948E00CDBFDEBFF5
:100250006396CDBFDEBFDF91CF910895EF92FF92FD
:100260000F931F93CF93DF93CDB7DEB76397CDBFC7
:10027000DEBF8C01909148049F70E1F1209144040D
:100280002F70C1F5FB01D80153968C9153978111C2
:100290003BC0F0805396FC92692F70E090E080E0C4
:1002A0000E9453030E94E903F801E4882FEF298399
:1002B00023E02A832B83FC8228E132E741E35FE3DA
:1002C0000E94B2020E9424036D83EE828DB79EB716
:1002D00043978DBF9EBFADB7BEB7119683E1FE01B8
:1002E000319601900D928A95E1F7C8010E948E0027
:1002F000CDBFDEBF6396CDBFDEBFDF91CF911F9133
:100300000F91FF90EF9008959FEF998394E09A8367
:1003100091E09B838C83EDB7FEB77397EDBFFEBF73
:10032000DACFCF93DF93CDB7DEB76397CDBFDEBF14
:10033000FB013081343050F52091420441E050E01F
:1003400001C0440F3A95EAF7242B20934204FC01A4
:1003500023893FEF398337E03A8332E03B832C83B4
:1003600021E02D832DB73EB7235131092DBF3EBF6C
:10037000ADB7BEB7119623E1FE01319601900D9203
:100380002A95E1F70E948E00CDBFDEBF6396CDBFF8
:10039000DEBFDF91CF910895CF93DF93CDB7DEB766
:1003A0006397CDBFDEBFFB015081543078F540919B
:1003B000410421E030E001C0220F5A95EAF7342FC2
:1003C000322B3093410430914404232B2093440476
:1003D000FC0123893FEF398337E03A8332E03B83E6
:1003E0002C831D822DB73EB7235131092DBF3EBF4F
:1003F000ADB7BEB7119623E1FE01319601900D9283
:100400002A95E1F70E948E00CDBFDEBF6396CDBF77
:10041000DEBFDF91CF9108951F920F920FB60F921A
:1004200011241F932F933F934F935F936F937F9369
:100430008F939F93AF93BF93EF93FF93CF93DF93EC
:10044000CDB7DEB76397CDBFDEBF80910008E091E6
:10045000123891E09E0F90931238F0E0E050F84C83
:10046000808380910138482F4F70242F30E02E5F19
:100470003F4F9217130609F047C01C8220910038A5
:10048000298390E054E0959587955A95E1F7582F88
:100490008A834B83A2E0B8E3FE01349630E0BF01CB
:1004A000431721F01D9111933F5FFACF309113381C
:1004B000321711F021111FC05830E8F423E0880FE3
:1004C000991F2A95E1F7FC01E458F5472281338111
:1004D000C901959587958050984C0190F081E02D49
:1004E00020FF08C0DC012D913C91E20FF31F019029
:1004F000F081E02D0995E0E0F8E382E1DF011D9253
:100500008A95E9F7109212386396CDBFDEBFDF916E
:10051000CF91FF91EF91BF91AF919F918F917F917B
:100520006F915F914F913F912F911F910F900FBE4F
:100530000F901F901895E0E0F8E31082128A138A5A
:10054000148A158A089584E08093200480912404FD
:10055000846080932404FFCFEE0FFF1F0590F49179
:10056000E02D09940E94C6020C94A7030E94A003E8
:1005700058F00E94990340F029F45F3F29F00C9451
:10058000900351110C94DB030C9496030E94B80362
:1005900068F39923B1F3552391F3951B550BBB27B2
:1005A000AA2762177307840738F09F5F5F4F220FF7
:1005B000331F441FAA1FA9F335D00E2E3AF0E0E8EE
:1005C00032D091505040E695001CCAF72BD0FE2F38
:1005D00029D0660F771F881FBB1F261737074807CC
:1005E000AB07B0E809F0BB0B802DBF01FF27935884
:1005F0005F4F3AF09E3F510578F00C9490030C94B5
:10060000DB035F3FE4F3983ED4F3869577956795D7
:10061000B795F7959F5FC9F7880F911D96958795B8
:1006200097F90895E1E0660F771F881FBB1F6217D7
:1006300073078407BA0720F0621B730B840BBA0B95
:10064000EE1F88F7E09508950E94C00388F09F5739
:1006500098F0B92F9927B751B0F0E1F0660F771FE6
:10066000881F991F1AF0BA95C9F714C0B13091F0DC
:100670000E94DA03B1E008950C94DA03672F782F13
:100680008827B85F39F0B93FCCF3869577956795A1
:10069000B395D9F73EF490958095709561957F4F0D
:1006A0008F4F9F4F0895E89409C097FB3EF49095B3
:1006B0008095709561957F4F8F4F9F4F9923A9F03B
:1006C000F92F96E9BB279395F695879577956795CA
:1006D000B795F111F8CFFAF4BB0F11F460FF1BC00E
:1006E0006F5F7F4F8F4F9F4F16C0882311F096E9A1
:1006F00011C0772321F09EE8872F762F05C066234F
:1007000071F096E8862F70E060E02AF09A95660F07
:10071000771F881FDAF7880F9695879597F90895C0
:1007200097F99F6780E870E060E008959FEF80ECA4
:10073000089500240A941616170618060906089547
:1007400000240A9412161306140605060895092EAD
:100750000394000C11F4882352F0BB0F40F4BF2B1C
:1007600011F460FF04C06F5F7F4F8F4F9F4F08955C
:1007700057FD9058440F551F59F05F3F71F0479552
:10078000880F97FB991F61F09F3F79F08795089537
:10079000121613061406551FF2CF4695F1DF08C056
:1007A000161617061806991FF1CF86957105610573
:1007B00008940895E894BB2766277727CB0197F91B
:1007C000089516F00C9407050C94960368940C9405
:1007D00090030E94C003A8F39923C1F3AEF3DF9303
:1007E000CF931F930F93FF92C92FDD2788232AF001
:1007F0002197660F771F881FDAF720E030E040E886
:100800005FEB9FE3883920F0803E38F021968F77A8
:100810000E949B04ECE7F0E004C00E949B04E9EA1C
:10082000F0E00E9415058B01BE01EC01FB2E6F5715
:1008300071097595771F880B990B0E94550328E164
:1008400032E741E35FE30E944004AF2D9801AE011F
:10085000FF900F911F91CF91DF910E94B2040C94F1
:10086000A7030E94990338F00E94A00320F095236B
:1008700011F00C9490030C94960311240C94DB0358
:100880000E94B80370F3959FC1F3950F50E0551F78
:10089000629FF001729FBB27F00DB11D639FAA27D5
:1008A000F00DB11DAA1F649F6627B00DA11D661F24
:1008B000829F2227B00DA11D621F739FB00DA11D45
:1008C000621F839FA00D611D221F749F3327A00DFF
:1008D000611D231F849F600D211D822F762F6A2F9B
:1008E00011249F5750409AF0F1F088234AF0EE0F00
:1008F000FF1FBB1F661F771F881F91505040A9F72D
:100900009E3F510580F00C9490030C94DB035F3FF5
:10091000E4F3983ED4F3869577956795B795F79568
:10092000E7959F5FC1F7FE2B880F911D96958795E0
:1009300097F908955058BB27AA270E94B2040C9437
:10094000A7030E94990338F00E94A00320F039F415
:100950009F3F19F426F40C9496030EF4E095E7FB00
:100960000C949003E92F0E94B80358F3BA1762075A
:1009700073078407950720F079F4A6F50C94DA0341
:100980000EF4E0950B2EBA2FA02D0B01B9019001AA
:100990000C01CA01A0011124FF27591B99F0593FEE
:1009A00050F4503E68F11A16F040A22F232F342F36
:1009B0004427585FF3CF469537952795A795F04084
:1009C0005395C9F77EF41F16BA0B620B730B840B99
:1009D000BAF09150A1F0FF0FBB1F661F771F881F51
:1009E000C2F70EC0BA0F621F731F841F48F48795A9
:1009F00077956795B795F7959E3F08F0B0CF93959B
:100A0000880F08F09927EE0F9795879508959F3FD7
:100A100031F0915020F4879577956795B795880FB9
:100A2000911D9695879597F90895DF93CF931F931E
:100A30000F93FF92EF92DF927B018C01689406C0C6
:100A4000DA2EEF010E944004FE01E894A591259161
:100A5000359145915591A6F3EF010E94B204FE0134
:100A60009701A801DA9469F7DF90EF90FF900F915A
:0C0A70001F91CF91DF910895F894FFCF03
:100A7C00CC0100000000000091010000000000000B
:100A8C002E010000640000008B000000000000003C
:100A9C008D000000000000008C0000000000000031
:080AAC00E700000064000000F7
:00000001FF
